{
  "contractName": "OurSocialMedia",
  "abi": [
    {
      "inputs": [
        {
          "internalType": "uint256",
          "name": "_maxCharInPost",
          "type": "uint256"
        },
        {
          "internalType": "uint256",
          "name": "_maxCharInComment",
          "type": "uint256"
        }
      ],
      "stateMutability": "nonpayable",
      "type": "constructor"
    },
    {
      "anonymous": false,
      "inputs": [
        {
          "indexed": false,
          "internalType": "uint256",
          "name": "id",
          "type": "uint256"
        },
        {
          "indexed": false,
          "internalType": "string",
          "name": "comment",
          "type": "string"
        },
        {
          "indexed": false,
          "internalType": "address",
          "name": "by",
          "type": "address"
        }
      ],
      "name": "commentEvent",
      "type": "event"
    },
    {
      "anonymous": false,
      "inputs": [
        {
          "indexed": false,
          "internalType": "uint256",
          "name": "id",
          "type": "uint256"
        },
        {
          "indexed": false,
          "internalType": "string",
          "name": "content",
          "type": "string"
        },
        {
          "indexed": false,
          "internalType": "string",
          "name": "media",
          "type": "string"
        },
        {
          "indexed": false,
          "internalType": "address",
          "name": "author",
          "type": "address"
        }
      ],
      "name": "postCreadedEvent",
      "type": "event"
    },
    {
      "anonymous": false,
      "inputs": [
        {
          "indexed": false,
          "internalType": "uint256",
          "name": "id",
          "type": "uint256"
        },
        {
          "indexed": false,
          "internalType": "uint256",
          "name": "tipAmount",
          "type": "uint256"
        },
        {
          "indexed": false,
          "internalType": "address",
          "name": "by",
          "type": "address"
        }
      ],
      "name": "postTipedEvent",
      "type": "event"
    },
    {
      "inputs": [
        {
          "internalType": "uint256",
          "name": "",
          "type": "uint256"
        }
      ],
      "name": "allPosts",
      "outputs": [
        {
          "internalType": "uint256",
          "name": "id",
          "type": "uint256"
        },
        {
          "internalType": "uint256",
          "name": "createTime",
          "type": "uint256"
        },
        {
          "internalType": "string",
          "name": "content",
          "type": "string"
        },
        {
          "internalType": "string",
          "name": "media",
          "type": "string"
        },
        {
          "internalType": "uint256",
          "name": "tipAmount",
          "type": "uint256"
        },
        {
          "internalType": "address payable",
          "name": "author",
          "type": "address"
        }
      ],
      "stateMutability": "view",
      "type": "function"
    },
    {
      "inputs": [
        {
          "internalType": "uint256",
          "name": "_id",
          "type": "uint256"
        }
      ],
      "name": "commentCountOfPost",
      "outputs": [
        {
          "internalType": "uint256",
          "name": "",
          "type": "uint256"
        }
      ],
      "stateMutability": "view",
      "type": "function"
    },
    {
      "inputs": [
        {
          "internalType": "uint256",
          "name": "_id",
          "type": "uint256"
        },
        {
          "internalType": "string",
          "name": "_comment",
          "type": "string"
        }
      ],
      "name": "commentOnPost",
      "outputs": [],
      "stateMutability": "nonpayable",
      "type": "function"
    },
    {
      "inputs": [
        {
          "internalType": "uint256",
          "name": "",
          "type": "uint256"
        },
        {
          "internalType": "uint256",
          "name": "",
          "type": "uint256"
        }
      ],
      "name": "commentsOf",
      "outputs": [
        {
          "internalType": "string",
          "name": "comment",
          "type": "string"
        },
        {
          "internalType": "address",
          "name": "by",
          "type": "address"
        }
      ],
      "stateMutability": "view",
      "type": "function"
    },
    {
      "inputs": [],
      "name": "contractName",
      "outputs": [
        {
          "internalType": "string",
          "name": "",
          "type": "string"
        }
      ],
      "stateMutability": "view",
      "type": "function"
    },
    {
      "inputs": [
        {
          "internalType": "string",
          "name": "_name",
          "type": "string"
        },
        {
          "internalType": "string",
          "name": "_userid",
          "type": "string"
        }
      ],
      "name": "createAccount",
      "outputs": [],
      "stateMutability": "nonpayable",
      "type": "function"
    },
    {
      "inputs": [
        {
          "internalType": "string",
          "name": "_content",
          "type": "string"
        },
        {
          "internalType": "string",
          "name": "_media",
          "type": "string"
        }
      ],
      "name": "createPost",
      "outputs": [],
      "stateMutability": "nonpayable",
      "type": "function"
    },
    {
      "inputs": [
        {
          "internalType": "address",
          "name": "_address",
          "type": "address"
        }
      ],
      "name": "follow",
      "outputs": [],
      "stateMutability": "nonpayable",
      "type": "function"
    },
    {
      "inputs": [
        {
          "internalType": "string",
          "name": "_string",
          "type": "string"
        }
      ],
      "name": "getStringLength",
      "outputs": [
        {
          "internalType": "uint256",
          "name": "",
          "type": "uint256"
        }
      ],
      "stateMutability": "pure",
      "type": "function"
    },
    {
      "inputs": [
        {
          "internalType": "address",
          "name": "",
          "type": "address"
        }
      ],
      "name": "isAccountCreatedOf",
      "outputs": [
        {
          "internalType": "bool",
          "name": "",
          "type": "bool"
        }
      ],
      "stateMutability": "view",
      "type": "function"
    },
    {
      "inputs": [
        {
          "internalType": "address",
          "name": "_address",
          "type": "address"
        }
      ],
      "name": "isFollowExist",
      "outputs": [
        {
          "internalType": "bool",
          "name": "",
          "type": "bool"
        }
      ],
      "stateMutability": "view",
      "type": "function"
    },
    {
      "inputs": [
        {
          "internalType": "string",
          "name": "",
          "type": "string"
        }
      ],
      "name": "isUserIDExist",
      "outputs": [
        {
          "internalType": "bool",
          "name": "",
          "type": "bool"
        }
      ],
      "stateMutability": "view",
      "type": "function"
    },
    {
      "inputs": [],
      "name": "maxCommentChar",
      "outputs": [
        {
          "internalType": "uint256",
          "name": "",
          "type": "uint256"
        }
      ],
      "stateMutability": "view",
      "type": "function"
    },
    {
      "inputs": [],
      "name": "maxContentChar",
      "outputs": [
        {
          "internalType": "uint256",
          "name": "",
          "type": "uint256"
        }
      ],
      "stateMutability": "view",
      "type": "function"
    },
    {
      "inputs": [
        {
          "internalType": "address",
          "name": "",
          "type": "address"
        },
        {
          "internalType": "uint256",
          "name": "",
          "type": "uint256"
        }
      ],
      "name": "postsOf",
      "outputs": [
        {
          "internalType": "uint256",
          "name": "",
          "type": "uint256"
        }
      ],
      "stateMutability": "view",
      "type": "function"
    },
    {
      "inputs": [
        {
          "internalType": "address",
          "name": "",
          "type": "address"
        }
      ],
      "name": "profileOf",
      "outputs": [
        {
          "internalType": "string",
          "name": "name",
          "type": "string"
        },
        {
          "internalType": "string",
          "name": "userid",
          "type": "string"
        },
        {
          "internalType": "uint256",
          "name": "Followers",
          "type": "uint256"
        }
      ],
      "stateMutability": "view",
      "type": "function"
    },
    {
      "inputs": [
        {
          "internalType": "uint256",
          "name": "_postId",
          "type": "uint256"
        }
      ],
      "name": "tipPost",
      "outputs": [],
      "stateMutability": "payable",
      "type": "function"
    },
    {
      "inputs": [
        {
          "internalType": "address",
          "name": "_address",
          "type": "address"
        }
      ],
      "name": "totalFollowCountOfUser",
      "outputs": [
        {
          "internalType": "uint256",
          "name": "",
          "type": "uint256"
        }
      ],
      "stateMutability": "view",
      "type": "function"
    },
    {
      "inputs": [],
      "name": "totalPosts",
      "outputs": [
        {
          "internalType": "uint256",
          "name": "",
          "type": "uint256"
        }
      ],
      "stateMutability": "view",
      "type": "function"
    },
    {
      "inputs": [
        {
          "internalType": "address",
          "name": "_address",
          "type": "address"
        }
      ],
      "name": "totalPostsCountOfUser",
      "outputs": [
        {
          "internalType": "uint256",
          "name": "",
          "type": "uint256"
        }
      ],
      "stateMutability": "view",
      "type": "function"
    },
    {
      "inputs": [
        {
          "internalType": "address",
          "name": "",
          "type": "address"
        },
        {
          "internalType": "uint256",
          "name": "",
          "type": "uint256"
        }
      ],
      "name": "userFollowTo",
      "outputs": [
        {
          "internalType": "address",
          "name": "",
          "type": "address"
        }
      ],
      "stateMutability": "view",
      "type": "function"
    }
  ],
  "bytecode": "0x60806040526040518060400160405280601681526020017f4f757220536f6369616c204d6564696120284f534d29000000000000000000008152506000908051906020019062000051929190620000ab565b506101a460045560dc60055560006006553480156200006f57600080fd5b50604051620027633803806200276383398181016040528101906200009591906200019b565b8160048190555080600581905550505062000247565b828054620000b99062000211565b90600052602060002090601f016020900481019282620000dd576000855562000129565b82601f10620000f857805160ff191683800117855562000129565b8280016001018555821562000129579182015b82811115620001285782518255916020019190600101906200010b565b5b5090506200013891906200013c565b5090565b5b80821115620001575760008160009055506001016200013d565b5090565b600080fd5b6000819050919050565b620001758162000160565b81146200018157600080fd5b50565b60008151905062000195816200016a565b92915050565b60008060408385031215620001b557620001b46200015b565b5b6000620001c58582860162000184565b9250506020620001d88582860162000184565b9150509250929050565b7f4e487b7100000000000000000000000000000000000000000000000000000000600052602260045260246000fd5b600060028204905060018216806200022a57607f821691505b60208210811415620002415762000240620001e2565b5b50919050565b61250c80620002576000396000f3fe60806040526004361061012a5760003560e01c8063718ce2bc116100ab5780638e53fb411161006f5780638e53fb4114610435578063c5413dfb14610460578063cfd248881461049d578063d11e3a8d146104da578063e3eda41214610505578063fad1f1b8146105425761012a565b8063718ce2bc1461033157806374d3c1f81461037357806375d0c0dc1461038f57806379fba9a5146103ba5780637b70fbf0146103f75761012a565b80634dbf27cc116100f25780634dbf27cc146102285780635747df7014610251578063647321541461028e57806365c19af0146102b75780636d48ee22146102f45761012a565b806303c808d21461012f578063192892871461016c5780632f8eb9cb1461019557806331d5df1b146101d4578063392338f5146101ff575b600080fd5b34801561013b57600080fd5b506101566004803603810190610151919061190f565b61057f565b6040516101639190611973565b60405180910390f35b34801561017857600080fd5b50610193600480360381019061018e919061198e565b6105b5565b005b3480156101a157600080fd5b506101bc60048036038101906101b79190611a64565b610841565b6040516101cb93929190611b32565b60405180910390f35b3480156101e057600080fd5b506101e961097b565b6040516101f69190611b77565b60405180910390f35b34801561020b57600080fd5b506102266004803603810190610221919061198e565b610981565b005b34801561023457600080fd5b5061024f600480360381019061024a9190611a64565b610c86565b005b34801561025d57600080fd5b5061027860048036038101906102739190611a64565b610e58565b6040516102859190611973565b60405180910390f35b34801561029a57600080fd5b506102b560048036038101906102b09190611bbe565b610f81565b005b3480156102c357600080fd5b506102de60048036038101906102d9919061190f565b6111bf565b6040516102eb9190611b77565b60405180910390f35b34801561030057600080fd5b5061031b60048036038101906103169190611a64565b6111cf565b6040516103289190611b77565b60405180910390f35b34801561033d57600080fd5b5061035860048036038101906103539190611c1a565b61121b565b60405161036a96959493929190611c68565b60405180910390f35b61038d60048036038101906103889190611c1a565b611387565b005b34801561039b57600080fd5b506103a4611484565b6040516103b19190611cd7565b60405180910390f35b3480156103c657600080fd5b506103e160048036038101906103dc9190611cf9565b611512565b6040516103ee9190611d48565b60405180910390f35b34801561040357600080fd5b5061041e60048036038101906104199190611d63565b611560565b60405161042c929190611da3565b60405180910390f35b34801561044157600080fd5b5061044a611649565b6040516104579190611b77565b60405180910390f35b34801561046c57600080fd5b5061048760048036038101906104829190611a64565b61164f565b6040516104949190611b77565b60405180910390f35b3480156104a957600080fd5b506104c460048036038101906104bf9190611a64565b61169b565b6040516104d19190611973565b60405180910390f35b3480156104e657600080fd5b506104ef6116bb565b6040516104fc9190611b77565b60405180910390f35b34801561051157600080fd5b5061052c60048036038101906105279190611cf9565b6116c1565b6040516105399190611b77565b60405180910390f35b34801561054e57600080fd5b5061056960048036038101906105649190611c1a565b6116f2565b6040516105769190611b77565b60405180910390f35b6003818051602081018201805184825260208301602085012081835280955050505050506000915054906101000a900460ff1681565b60006105c0836111bf565b1180156105d5575060006105d3826111bf565b115b610614576040517f08c379a000000000000000000000000000000000000000000000000000000000815260040161060b90611e1f565b60405180910390fd5b600160003373ffffffffffffffffffffffffffffffffffffffff1673ffffffffffffffffffffffffffffffffffffffff16815260200190815260200160002060009054906101000a900460ff16156106a1576040517f08c379a000000000000000000000000000000000000000000000000000000000815260040161069890611e8b565b60405180910390fd5b6003816040516106b19190611ee7565b908152602001604051809103902060009054906101000a900460ff161561070d576040517f08c379a000000000000000000000000000000000000000000000000000000000815260040161070490611f70565b60405180910390fd5b60405180606001604052808381526020018281526020016000815250600260003373ffffffffffffffffffffffffffffffffffffffff1673ffffffffffffffffffffffffffffffffffffffff1681526020019081526020016000206000820151816000019080519060200190610784929190611712565b5060208201518160010190805190602001906107a1929190611712565b506040820151816002015590505060018060003373ffffffffffffffffffffffffffffffffffffffff1673ffffffffffffffffffffffffffffffffffffffff16815260200190815260200160002060006101000a81548160ff02191690831515021790555060016003826040516108189190611ee7565b908152602001604051809103902060006101000a81548160ff0219169083151502179055505050565b600260205280600052604060002060009150905080600001805461086490611fbf565b80601f016020809104026020016040519081016040528092919081815260200182805461089090611fbf565b80156108dd5780601f106108b2576101008083540402835291602001916108dd565b820191906000526020600020905b8154815290600101906020018083116108c057829003601f168201915b5050505050908060010180546108f290611fbf565b80601f016020809104026020016040519081016040528092919081815260200182805461091e90611fbf565b801561096b5780601f106109405761010080835404028352916020019161096b565b820191906000526020600020905b81548152906001019060200180831161094e57829003601f168201915b5050505050908060020154905083565b60055481565b600160003373ffffffffffffffffffffffffffffffffffffffff1673ffffffffffffffffffffffffffffffffffffffff16815260200190815260200160002060009054906101000a900460ff16610a0d576040517f08c379a0000000000000000000000000000000000000000000000000000000008152600401610a0490612063565b60405180910390fd5b6000610a18836111bf565b1180610a2c57506000610a2a826111bf565b115b610a6b576040517f08c379a0000000000000000000000000000000000000000000000000000000008152600401610a62906120cf565b60405180910390fd5b600454610a77836111bf565b1115610ab8576040517f08c379a0000000000000000000000000000000000000000000000000000000008152600401610aaf90612161565b60405180910390fd5b60066000815480929190610acb906121b0565b9190505550600654600760006006548152602001908152602001600020600001819055504260076000600654815260200190815260200160002060010181905550816007600060065481526020019081526020016000206002019080519060200190610b38929190611712565b50806007600060065481526020019081526020016000206003019080519060200190610b65929190611712565b506000600760006006548152602001908152602001600020600401819055503360076000600654815260200190815260200160002060050160006101000a81548173ffffffffffffffffffffffffffffffffffffffff021916908373ffffffffffffffffffffffffffffffffffffffff160217905550600860003373ffffffffffffffffffffffffffffffffffffffff1673ffffffffffffffffffffffffffffffffffffffff16815260200190815260200160002060065490806001815401808255809150506001900390600052602060002001600090919091909150557f6f9f491ecb58604683b49317d83e48596b3a3d35f9faa0326381af04409238b4600654838333604051610c7a94939291906121f9565b60405180910390a15050565b600160003373ffffffffffffffffffffffffffffffffffffffff1673ffffffffffffffffffffffffffffffffffffffff16815260200190815260200160002060009054906101000a900460ff16610d12576040517f08c379a0000000000000000000000000000000000000000000000000000000008152600401610d0990612063565b60405180910390fd5b610d1b81610e58565b15610d5b576040517f08c379a0000000000000000000000000000000000000000000000000000000008152600401610d5290612298565b60405180910390fd5b600960003373ffffffffffffffffffffffffffffffffffffffff1673ffffffffffffffffffffffffffffffffffffffff168152602001908152602001600020819080600181540180825580915050600190039060005260206000200160009091909190916101000a81548173ffffffffffffffffffffffffffffffffffffffff021916908373ffffffffffffffffffffffffffffffffffffffff1602179055506001600260008373ffffffffffffffffffffffffffffffffffffffff1673ffffffffffffffffffffffffffffffffffffffff1681526020019081526020016000206002016000828254610e4e91906122b8565b9250508190555050565b600080600090505b600960003373ffffffffffffffffffffffffffffffffffffffff1673ffffffffffffffffffffffffffffffffffffffff16815260200190815260200160002080549050811015610f76578273ffffffffffffffffffffffffffffffffffffffff16600960003373ffffffffffffffffffffffffffffffffffffffff1673ffffffffffffffffffffffffffffffffffffffff1681526020019081526020016000208281548110610f1257610f1161230e565b5b9060005260206000200160009054906101000a900473ffffffffffffffffffffffffffffffffffffffff1673ffffffffffffffffffffffffffffffffffffffff161415610f63576001915050610f7c565b8080610f6e906121b0565b915050610e60565b50600090505b919050565b600160003373ffffffffffffffffffffffffffffffffffffffff1673ffffffffffffffffffffffffffffffffffffffff16815260200190815260200160002060009054906101000a900460ff1661100d576040517f08c379a000000000000000000000000000000000000000000000000000000000815260040161100490612063565b60405180910390fd5b816006541015801561102757506000611025826111bf565b115b611066576040517f08c379a000000000000000000000000000000000000000000000000000000000815260040161105d906123af565b60405180910390fd5b600554611072826111bf565b11156110b3576040517f08c379a00000000000000000000000000000000000000000000000000000000081526004016110aa90612441565b60405180910390fd5b600a600083815260200190815260200160002060405180604001604052808381526020013373ffffffffffffffffffffffffffffffffffffffff1681525090806001815401808255809150506001900390600052602060002090600202016000909190919091506000820151816000019080519060200190611136929190611712565b5060208201518160010160006101000a81548173ffffffffffffffffffffffffffffffffffffffff021916908373ffffffffffffffffffffffffffffffffffffffff16021790555050507f45c8b5a0e22895b0a38f4a3cffe6be54fb81d7c71a417b78eb1db33410a304a18282336040516111b393929190612461565b60405180910390a15050565b6000808290508051915050919050565b6000600860008373ffffffffffffffffffffffffffffffffffffffff1673ffffffffffffffffffffffffffffffffffffffff168152602001908152602001600020805490509050919050565b600760205280600052604060002060009150905080600001549080600101549080600201805461124a90611fbf565b80601f016020809104026020016040519081016040528092919081815260200182805461127690611fbf565b80156112c35780601f10611298576101008083540402835291602001916112c3565b820191906000526020600020905b8154815290600101906020018083116112a657829003601f168201915b5050505050908060030180546112d890611fbf565b80601f016020809104026020016040519081016040528092919081815260200182805461130490611fbf565b80156113515780601f1061132657610100808354040283529160200191611351565b820191906000526020600020905b81548152906001019060200180831161133457829003601f168201915b5050505050908060040154908060050160009054906101000a900473ffffffffffffffffffffffffffffffffffffffff16905086565b80600654101561139657600080fd5b60006007600083815260200190815260200160002060050160009054906101000a900473ffffffffffffffffffffffffffffffffffffffff1690508073ffffffffffffffffffffffffffffffffffffffff166108fc349081150290604051600060405180830381858888f19350505050158015611417573d6000803e3d6000fd5b503460076000848152602001908152602001600020600401600082825461143e91906122b8565b925050819055507f98840898c36a507325b32edb412ca4b585da94205ec38113b359d2e71797fcac8234336040516114789392919061249f565b60405180910390a15050565b6000805461149190611fbf565b80601f01602080910402602001604051908101604052809291908181526020018280546114bd90611fbf565b801561150a5780601f106114df5761010080835404028352916020019161150a565b820191906000526020600020905b8154815290600101906020018083116114ed57829003601f168201915b505050505081565b6009602052816000526040600020818154811061152e57600080fd5b906000526020600020016000915091509054906101000a900473ffffffffffffffffffffffffffffffffffffffff1681565b600a602052816000526040600020818154811061157c57600080fd5b9060005260206000209060020201600091509150508060000180546115a090611fbf565b80601f01602080910402602001604051908101604052809291908181526020018280546115cc90611fbf565b80156116195780601f106115ee57610100808354040283529160200191611619565b820191906000526020600020905b8154815290600101906020018083116115fc57829003601f168201915b5050505050908060010160009054906101000a900473ffffffffffffffffffffffffffffffffffffffff16905082565b60065481565b6000600960008373ffffffffffffffffffffffffffffffffffffffff1673ffffffffffffffffffffffffffffffffffffffff168152602001908152602001600020805490509050919050565b60016020528060005260406000206000915054906101000a900460ff1681565b60045481565b600860205281600052604060002081815481106116dd57600080fd5b90600052602060002001600091509150505481565b6000600a6000838152602001908152602001600020805490509050919050565b82805461171e90611fbf565b90600052602060002090601f0160209004810192826117405760008555611787565b82601f1061175957805160ff1916838001178555611787565b82800160010185558215611787579182015b8281111561178657825182559160200191906001019061176b565b5b5090506117949190611798565b5090565b5b808211156117b1576000816000905550600101611799565b5090565b6000604051905090565b600080fd5b600080fd5b600080fd5b600080fd5b6000601f19601f8301169050919050565b7f4e487b7100000000000000000000000000000000000000000000000000000000600052604160045260246000fd5b61181c826117d3565b810181811067ffffffffffffffff8211171561183b5761183a6117e4565b5b80604052505050565b600061184e6117b5565b905061185a8282611813565b919050565b600067ffffffffffffffff82111561187a576118796117e4565b5b611883826117d3565b9050602081019050919050565b82818337600083830152505050565b60006118b26118ad8461185f565b611844565b9050828152602081018484840111156118ce576118cd6117ce565b5b6118d9848285611890565b509392505050565b600082601f8301126118f6576118f56117c9565b5b813561190684826020860161189f565b91505092915050565b600060208284031215611925576119246117bf565b5b600082013567ffffffffffffffff811115611943576119426117c4565b5b61194f848285016118e1565b91505092915050565b60008115159050919050565b61196d81611958565b82525050565b60006020820190506119886000830184611964565b92915050565b600080604083850312156119a5576119a46117bf565b5b600083013567ffffffffffffffff8111156119c3576119c26117c4565b5b6119cf858286016118e1565b925050602083013567ffffffffffffffff8111156119f0576119ef6117c4565b5b6119fc858286016118e1565b9150509250929050565b600073ffffffffffffffffffffffffffffffffffffffff82169050919050565b6000611a3182611a06565b9050919050565b611a4181611a26565b8114611a4c57600080fd5b50565b600081359050611a5e81611a38565b92915050565b600060208284031215611a7a57611a796117bf565b5b6000611a8884828501611a4f565b91505092915050565b600081519050919050565b600082825260208201905092915050565b60005b83811015611acb578082015181840152602081019050611ab0565b83811115611ada576000848401525b50505050565b6000611aeb82611a91565b611af58185611a9c565b9350611b05818560208601611aad565b611b0e816117d3565b840191505092915050565b6000819050919050565b611b2c81611b19565b82525050565b60006060820190508181036000830152611b4c8186611ae0565b90508181036020830152611b608185611ae0565b9050611b6f6040830184611b23565b949350505050565b6000602082019050611b8c6000830184611b23565b92915050565b611b9b81611b19565b8114611ba657600080fd5b50565b600081359050611bb881611b92565b92915050565b60008060408385031215611bd557611bd46117bf565b5b6000611be385828601611ba9565b925050602083013567ffffffffffffffff811115611c0457611c036117c4565b5b611c10858286016118e1565b9150509250929050565b600060208284031215611c3057611c2f6117bf565b5b6000611c3e84828501611ba9565b91505092915050565b6000611c5282611a06565b9050919050565b611c6281611c47565b82525050565b600060c082019050611c7d6000830189611b23565b611c8a6020830188611b23565b8181036040830152611c9c8187611ae0565b90508181036060830152611cb08186611ae0565b9050611cbf6080830185611b23565b611ccc60a0830184611c59565b979650505050505050565b60006020820190508181036000830152611cf18184611ae0565b905092915050565b60008060408385031215611d1057611d0f6117bf565b5b6000611d1e85828601611a4f565b9250506020611d2f85828601611ba9565b9150509250929050565b611d4281611a26565b82525050565b6000602082019050611d5d6000830184611d39565b92915050565b60008060408385031215611d7a57611d796117bf565b5b6000611d8885828601611ba9565b9250506020611d9985828601611ba9565b9150509250929050565b60006040820190508181036000830152611dbd8185611ae0565b9050611dcc6020830184611d39565b9392505050565b7f6e616d65206f7220757365726964206973206e6f742061646465640000000000600082015250565b6000611e09601b83611a9c565b9150611e1482611dd3565b602082019050919050565b60006020820190508181036000830152611e3881611dfc565b9050919050565b7f6163636f756e7420616c72656164792063726561746564000000000000000000600082015250565b6000611e75601783611a9c565b9150611e8082611e3f565b602082019050919050565b60006020820190508181036000830152611ea481611e68565b9050919050565b600081905092915050565b6000611ec182611a91565b611ecb8185611eab565b9350611edb818560208601611aad565b80840191505092915050565b6000611ef38284611eb6565b915081905092915050565b7f7573657220696420697320616c726561647920657869737420706c656173652060008201527f73656c656374206e657700000000000000000000000000000000000000000000602082015250565b6000611f5a602a83611a9c565b9150611f6582611efe565b604082019050919050565b60006020820190508181036000830152611f8981611f4d565b9050919050565b7f4e487b7100000000000000000000000000000000000000000000000000000000600052602260045260246000fd5b60006002820490506001821680611fd757607f821691505b60208210811415611feb57611fea611f90565b5b50919050565b7f757365722773206163636f756e74206e6f7420637265617465642e20506c656160008201527f736520637265617465206163636f756e742066697273742e0000000000000000602082015250565b600061204d603883611a9c565b915061205882611ff1565b604082019050919050565b6000602082019050818103600083015261207c81612040565b9050919050565b7f436f6e74656e74206f72206d65646961206973206e6f74206164646564000000600082015250565b60006120b9601d83611a9c565b91506120c482612083565b602082019050919050565b600060208201905081810360008301526120e8816120ac565b9050919050565b7f746f74616c2063686172637465727320696e20737472696e67206d757374206260008201527f65206c657373207468656e206d6178436f6e74656e7443686172000000000000602082015250565b600061214b603a83611a9c565b9150612156826120ef565b604082019050919050565b6000602082019050818103600083015261217a8161213e565b9050919050565b7f4e487b7100000000000000000000000000000000000000000000000000000000600052601160045260246000fd5b60006121bb82611b19565b91507fffffffffffffffffffffffffffffffffffffffffffffffffffffffffffffffff8214156121ee576121ed612181565b5b600182019050919050565b600060808201905061220e6000830187611b23565b81810360208301526122208186611ae0565b905081810360408301526122348185611ae0565b90506122436060830184611d39565b95945050505050565b7f616c726561647920657869737420696e20666f6c6c6f77206c69737400000000600082015250565b6000612282601c83611a9c565b915061228d8261224c565b602082019050919050565b600060208201905081810360008301526122b181612275565b9050919050565b60006122c382611b19565b91506122ce83611b19565b9250827fffffffffffffffffffffffffffffffffffffffffffffffffffffffffffffffff0382111561230357612302612181565b5b828201905092915050565b7f4e487b7100000000000000000000000000000000000000000000000000000000600052603260045260246000fd5b7f69642069732077726f6e67206f7220636f6d6d656e74206973206e6f7420777260008201527f697474656e000000000000000000000000000000000000000000000000000000602082015250565b6000612399602583611a9c565b91506123a48261233d565b604082019050919050565b600060208201905081810360008301526123c88161238c565b9050919050565b7f746f74616c2063686172637465727320696e20737472696e67206d757374206260008201527f65206c657373207468656e206d6178436f6d6d656e7443686172000000000000602082015250565b600061242b603a83611a9c565b9150612436826123cf565b604082019050919050565b6000602082019050818103600083015261245a8161241e565b9050919050565b60006060820190506124766000830186611b23565b81810360208301526124888185611ae0565b90506124976040830184611d39565b949350505050565b60006060820190506124b46000830186611b23565b6124c16020830185611b23565b6124ce6040830184611d39565b94935050505056fea26469706673582212207014615b33b31efda65bbad9d341a4356366375fb242618ce237084faf29618f64736f6c63430008090033",
  "immutableReferences": {},
  "source": "// SPDX-License-Identifier: MIT\r\npragma solidity >=0.4.22 <0.9.0;\r\n\r\ncontract OurSocialMedia {\r\n    string public contractName = \"Our Social Media (OSM)\";\r\n    // -------------start--profile,account-------------//\r\n    struct Profile {\r\n        string name;\r\n        string userid; // uniq\r\n        uint256 Followers;\r\n    }\r\n\r\n    mapping(address => bool) public isAccountCreatedOf;\r\n    mapping(address => Profile) public profileOf;\r\n\r\n    mapping(string => bool) public isUserIDExist;\r\n    // mapping(string => Profile) public profileByID;\r\n\r\n    // -------------end--profile,account-------------//\r\n\r\n    // -------------start--Posts,comments,follow,tip-------------//\r\n    uint256 public maxContentChar = 420;\r\n    uint256 public maxCommentChar = 220;\r\n    struct Post {\r\n        uint256 id;\r\n        uint256 createTime;\r\n        string content; //text in post\r\n        string media; // photo or video\r\n        uint256 tipAmount; // money tipded by someone\r\n        address payable author;\r\n    }\r\n    struct Comment {\r\n        string comment;\r\n        address by;\r\n    }\r\n\r\n    uint256 public totalPosts = 0;\r\n    mapping(uint256 => Post) public allPosts;\r\n    mapping(address => uint256[]) public postsOf;\r\n\r\n    mapping(address => address[]) public userFollowTo;\r\n\r\n    mapping(uint256 => Comment[]) public commentsOf;\r\n    // -------------end--Posts,comments,follow,tip-------------//\r\n\r\n    //events\r\n    event postCreadedEvent(\r\n        uint256 id,\r\n        string content,\r\n        string media,\r\n        address author\r\n    );\r\n\r\n    event postTipedEvent(uint256 id, uint256 tipAmount, address by);\r\n    event commentEvent(uint256 id, string comment, address by);\r\n\r\n    constructor(uint256 _maxCharInPost, uint256 _maxCharInComment) {\r\n        maxContentChar = _maxCharInPost;\r\n        maxCommentChar = _maxCharInComment;\r\n    }\r\n\r\n    // -------------start--profile,account-------------//\r\n\r\n    function createAccount(string memory _name, string memory _userid) public {\r\n        require(\r\n            getStringLength(_name) > 0 && getStringLength(_userid) > 0,\r\n            \"name or userid is not added\"\r\n        );\r\n        require(!isAccountCreatedOf[msg.sender], \"account already created\");\r\n        require(\r\n            !isUserIDExist[_userid],\r\n            \"user id is already exist please select new\"\r\n        );\r\n        profileOf[msg.sender] = Profile(_name, _userid, 0);\r\n        isAccountCreatedOf[msg.sender] = true;\r\n        isUserIDExist[_userid] = true;\r\n    }\r\n\r\n    // -------------end--profile,account-------------//\r\n\r\n    modifier onlyUserWhoProfileCreated() {\r\n        require(isAccountCreatedOf[msg.sender], \"user's account not created. Please create account first.\");\r\n        _;\r\n    }\r\n\r\n    // -------------start--Posts,comments,follow,tip-------------//\r\n\r\n    function createPost(string memory _content, string memory _media) public onlyUserWhoProfileCreated {\r\n        require(\r\n            getStringLength(_content) > 0 || getStringLength(_media) > 0,\r\n            \"Content or media is not added\"\r\n        );\r\n        require(\r\n            getStringLength(_content) <= maxContentChar,\r\n            \"total charcters in string must be less then maxContentChar\"\r\n        );\r\n\r\n        totalPosts++;\r\n\r\n        allPosts[totalPosts].id = totalPosts;\r\n        allPosts[totalPosts].createTime = block.timestamp;\r\n        allPosts[totalPosts].content = _content;\r\n        allPosts[totalPosts].media = _media;\r\n        allPosts[totalPosts].tipAmount = 0;\r\n        allPosts[totalPosts].author = payable(msg.sender);\r\n\r\n        postsOf[msg.sender].push(totalPosts);\r\n\r\n        emit postCreadedEvent(totalPosts, _content, _media, msg.sender);\r\n    }\r\n\r\n    function commentOnPost(uint256 _id, string memory _comment) public onlyUserWhoProfileCreated {\r\n        require(\r\n            totalPosts >= _id && getStringLength(_comment) > 0,\r\n            \"id is wrong or comment is not written\"\r\n        );\r\n\r\n        require(\r\n            getStringLength(_comment) <= maxCommentChar,\r\n            \"total charcters in string must be less then maxCommentChar\"\r\n        );\r\n        commentsOf[_id].push(Comment(_comment, msg.sender));\r\n\r\n        emit commentEvent(_id, _comment, msg.sender);\r\n    }\r\n\r\n    function commentCountOfPost(uint256 _id) public view returns (uint256) {\r\n        return commentsOf[_id].length;\r\n    }\r\n\r\n    function tipPost(uint256 _postId) public payable {\r\n        require(totalPosts >= _postId);\r\n\r\n        address payable _author = allPosts[_postId].author;\r\n        _author.transfer(msg.value);\r\n        allPosts[_postId].tipAmount += msg.value;\r\n\r\n        emit postTipedEvent(_postId, msg.value, msg.sender);\r\n    }\r\n\r\n    function follow(address _address) public onlyUserWhoProfileCreated {\r\n        require(!isFollowExist(_address), \"already exist in follow list\");\r\n        userFollowTo[msg.sender].push(_address);\r\n        profileOf[_address].Followers += 1;\r\n    }\r\n\r\n    function totalFollowCountOfUser(address _address)\r\n        public\r\n        view\r\n        returns (uint256)\r\n    {\r\n        return userFollowTo[_address].length;\r\n    }\r\n\r\n    function totalPostsCountOfUser(address _address)\r\n        public\r\n        view\r\n        returns (uint256)\r\n    {\r\n        return postsOf[_address].length;\r\n    }\r\n\r\n    // -------------end--Posts,comments,follow,tip-------------//\r\n\r\n    // helping functions\r\n    function isFollowExist(address _address) public view returns (bool) {\r\n        for (uint256 i = 0; i < userFollowTo[msg.sender].length; i++) {\r\n            if (userFollowTo[msg.sender][i] == _address) {\r\n                return true;\r\n            }\r\n        }\r\n        return false;\r\n    }\r\n\r\n    function getStringLength(string memory _string)\r\n        public\r\n        pure\r\n        returns (uint256)\r\n    {\r\n        bytes memory strBytes = bytes(_string);\r\n        return strBytes.length;\r\n    }\r\n}\r\n",
  "sourcePath": "C:\\blockchain\\3_Our_Social_Media\\src\\contracts\\OurSocialMedia.sol",
  "compiler": {
    "name": "solc",
    "version": "0.8.9+commit.e5eed63a.Emscripten.clang"
  },
  "schemaVersion": "3.4.3",
  "updatedAt": "2021-10-21T12:44:47.881Z",
  "devdoc": {
    "kind": "dev",
    "methods": {},
    "version": 1
  },
  "userdoc": {
    "kind": "user",
    "methods": {},
    "version": 1
  }
}